{
	"contracts/PublicCounter.sol": {
		"PublicCounter": {
			"abi": [
				{
					"inputs": [],
					"stateMutability": "nonpayable",
					"type": "constructor"
				},
				{
					"inputs": [],
					"name": "cuenta",
					"outputs": [
						{
							"internalType": "int256",
							"name": "",
							"type": "int256"
						}
					],
					"stateMutability": "view",
					"type": "function"
				},
				{
					"inputs": [],
					"name": "increment",
					"outputs": [],
					"stateMutability": "nonpayable",
					"type": "function"
				},
				{
					"inputs": [],
					"name": "resetCount",
					"outputs": [],
					"stateMutability": "nonpayable",
					"type": "function"
				}
			],
			"devdoc": {
				"kind": "dev",
				"methods": {},
				"version": 1
			},
			"evm": {
				"assembly": "    /* \"contracts/PublicCounter.sol\":74:446  contract PublicCounter{... */\n  mstore(0x40, 0x80)\n    /* \"contracts/PublicCounter.sol\":123:124  0 */\n  0x00\n    /* \"contracts/PublicCounter.sol\":103:124  int public cuenta = 0 */\n  dup1\n  sstore\n    /* \"contracts/PublicCounter.sol\":159:216  constructor() {... */\n  callvalue\n  dup1\n  iszero\n  tag_1\n  jumpi\n  0x00\n  dup1\n  revert\ntag_1:\n  pop\n    /* \"contracts/PublicCounter.sol\":198:208  msg.sender */\n  caller\n    /* \"contracts/PublicCounter.sol\":184:195  propietario */\n  0x01\n  0x00\n    /* \"contracts/PublicCounter.sol\":184:208  propietario = msg.sender */\n  0x0100\n  exp\n  dup2\n  sload\n  dup2\n  0xffffffffffffffffffffffffffffffffffffffff\n  mul\n  not\n  and\n  swap1\n  dup4\n  0xffffffffffffffffffffffffffffffffffffffff\n  and\n  mul\n  or\n  swap1\n  sstore\n  pop\n    /* \"contracts/PublicCounter.sol\":74:446  contract PublicCounter{... */\n  dataSize(sub_0)\n  dup1\n  dataOffset(sub_0)\n  0x00\n  codecopy\n  0x00\n  return\nstop\n\nsub_0: assembly {\n        /* \"contracts/PublicCounter.sol\":74:446  contract PublicCounter{... */\n      mstore(0x40, 0x80)\n      callvalue\n      dup1\n      iszero\n      tag_1\n      jumpi\n      0x00\n      dup1\n      revert\n    tag_1:\n      pop\n      jumpi(tag_2, lt(calldatasize, 0x04))\n      shr(0xe0, calldataload(0x00))\n      dup1\n      0x91cefdd1\n      eq\n      tag_3\n      jumpi\n      dup1\n      0xd09de08a\n      eq\n      tag_4\n      jumpi\n      dup1\n      0xfd895292\n      eq\n      tag_5\n      jumpi\n    tag_2:\n      0x00\n      dup1\n      revert\n        /* \"contracts/PublicCounter.sol\":103:124  int public cuenta = 0 */\n    tag_3:\n      tag_6\n      tag_7\n      jump\t// in\n    tag_6:\n      mload(0x40)\n      tag_8\n      swap2\n      swap1\n      tag_9\n      jump\t// in\n    tag_8:\n      mload(0x40)\n      dup1\n      swap2\n      sub\n      swap1\n      return\n        /* \"contracts/PublicCounter.sol\":224:281  function increment() public{... */\n    tag_4:\n      tag_10\n      tag_11\n      jump\t// in\n    tag_10:\n      stop\n        /* \"contracts/PublicCounter.sol\":289:443  function resetCount() public {... */\n    tag_5:\n      tag_12\n      tag_13\n      jump\t// in\n    tag_12:\n      stop\n        /* \"contracts/PublicCounter.sol\":103:124  int public cuenta = 0 */\n    tag_7:\n      sload(0x00)\n      dup2\n      jump\t// out\n        /* \"contracts/PublicCounter.sol\":224:281  function increment() public{... */\n    tag_11:\n        /* \"contracts/PublicCounter.sol\":262:268  cuenta */\n      0x00\n      dup1\n        /* \"contracts/PublicCounter.sol\":262:270  cuenta++ */\n      dup2\n      sload\n      dup1\n      swap3\n      swap2\n      swap1\n      tag_15\n      swap1\n      tag_16\n      jump\t// in\n    tag_15:\n      swap2\n      swap1\n      pop\n      sstore\n      pop\n        /* \"contracts/PublicCounter.sol\":224:281  function increment() public{... */\n      jump\t// out\n        /* \"contracts/PublicCounter.sol\":289:443  function resetCount() public {... */\n    tag_13:\n        /* \"contracts/PublicCounter.sol\":351:362  propietario */\n      0x01\n      0x00\n      swap1\n      sload\n      swap1\n      0x0100\n      exp\n      swap1\n      div\n      0xffffffffffffffffffffffffffffffffffffffff\n      and\n        /* \"contracts/PublicCounter.sol\":337:362  msg.sender == propietario */\n      0xffffffffffffffffffffffffffffffffffffffff\n      and\n        /* \"contracts/PublicCounter.sol\":337:347  msg.sender */\n      caller\n        /* \"contracts/PublicCounter.sol\":337:362  msg.sender == propietario */\n      0xffffffffffffffffffffffffffffffffffffffff\n      and\n      eq\n        /* \"contracts/PublicCounter.sol\":329:414  require(msg.sender == propietario, \"Solo propietario puede hacer reset de la cuenta\") */\n      tag_18\n      jumpi\n      mload(0x40)\n      0x08c379a000000000000000000000000000000000000000000000000000000000\n      dup2\n      mstore\n      0x04\n      add\n      tag_19\n      swap1\n      tag_20\n      jump\t// in\n    tag_19:\n      mload(0x40)\n      dup1\n      swap2\n      sub\n      swap1\n      revert\n    tag_18:\n        /* \"contracts/PublicCounter.sol\":434:435  0 */\n      0x00\n        /* \"contracts/PublicCounter.sol\":425:431  cuenta */\n      dup1\n        /* \"contracts/PublicCounter.sol\":425:435  cuenta = 0 */\n      dup2\n      swap1\n      sstore\n      pop\n        /* \"contracts/PublicCounter.sol\":289:443  function resetCount() public {... */\n      jump\t// out\n        /* \"#utility.yul\":7:83   */\n    tag_21:\n        /* \"#utility.yul\":43:50   */\n      0x00\n        /* \"#utility.yul\":72:77   */\n      dup2\n        /* \"#utility.yul\":61:77   */\n      swap1\n      pop\n        /* \"#utility.yul\":7:83   */\n      swap2\n      swap1\n      pop\n      jump\t// out\n        /* \"#utility.yul\":89:204   */\n    tag_22:\n        /* \"#utility.yul\":174:197   */\n      tag_30\n        /* \"#utility.yul\":191:196   */\n      dup2\n        /* \"#utility.yul\":174:197   */\n      tag_21\n      jump\t// in\n    tag_30:\n        /* \"#utility.yul\":169:172   */\n      dup3\n        /* \"#utility.yul\":162:198   */\n      mstore\n        /* \"#utility.yul\":89:204   */\n      pop\n      pop\n      jump\t// out\n        /* \"#utility.yul\":210:428   */\n    tag_9:\n        /* \"#utility.yul\":301:305   */\n      0x00\n        /* \"#utility.yul\":339:341   */\n      0x20\n        /* \"#utility.yul\":328:337   */\n      dup3\n        /* \"#utility.yul\":324:342   */\n      add\n        /* \"#utility.yul\":316:342   */\n      swap1\n      pop\n        /* \"#utility.yul\":352:421   */\n      tag_32\n        /* \"#utility.yul\":418:419   */\n      0x00\n        /* \"#utility.yul\":407:416   */\n      dup4\n        /* \"#utility.yul\":403:420   */\n      add\n        /* \"#utility.yul\":394:400   */\n      dup5\n        /* \"#utility.yul\":352:421   */\n      tag_22\n      jump\t// in\n    tag_32:\n        /* \"#utility.yul\":210:428   */\n      swap3\n      swap2\n      pop\n      pop\n      jump\t// out\n        /* \"#utility.yul\":434:614   */\n    tag_23:\n        /* \"#utility.yul\":482:559   */\n      0x4e487b7100000000000000000000000000000000000000000000000000000000\n        /* \"#utility.yul\":479:480   */\n      0x00\n        /* \"#utility.yul\":472:560   */\n      mstore\n        /* \"#utility.yul\":579:583   */\n      0x11\n        /* \"#utility.yul\":576:577   */\n      0x04\n        /* \"#utility.yul\":569:584   */\n      mstore\n        /* \"#utility.yul\":603:607   */\n      0x24\n        /* \"#utility.yul\":600:601   */\n      0x00\n        /* \"#utility.yul\":593:608   */\n      revert\n        /* \"#utility.yul\":620:851   */\n    tag_16:\n        /* \"#utility.yul\":658:661   */\n      0x00\n        /* \"#utility.yul\":681:704   */\n      tag_35\n        /* \"#utility.yul\":698:703   */\n      dup3\n        /* \"#utility.yul\":681:704   */\n      tag_21\n      jump\t// in\n    tag_35:\n        /* \"#utility.yul\":672:704   */\n      swap2\n      pop\n        /* \"#utility.yul\":726:792   */\n      0x7fffffffffffffffffffffffffffffffffffffffffffffffffffffffffffffff\n        /* \"#utility.yul\":719:724   */\n      dup3\n        /* \"#utility.yul\":716:793   */\n      sub\n        /* \"#utility.yul\":713:816   */\n      tag_36\n      jumpi\n        /* \"#utility.yul\":796:814   */\n      tag_37\n      tag_23\n      jump\t// in\n    tag_37:\n        /* \"#utility.yul\":713:816   */\n    tag_36:\n        /* \"#utility.yul\":843:844   */\n      0x01\n        /* \"#utility.yul\":836:841   */\n      dup3\n        /* \"#utility.yul\":832:845   */\n      add\n        /* \"#utility.yul\":825:845   */\n      swap1\n      pop\n        /* \"#utility.yul\":620:851   */\n      swap2\n      swap1\n      pop\n      jump\t// out\n        /* \"#utility.yul\":857:1026   */\n    tag_24:\n        /* \"#utility.yul\":941:952   */\n      0x00\n        /* \"#utility.yul\":975:981   */\n      dup3\n        /* \"#utility.yul\":970:973   */\n      dup3\n        /* \"#utility.yul\":963:982   */\n      mstore\n        /* \"#utility.yul\":1015:1019   */\n      0x20\n        /* \"#utility.yul\":1010:1013   */\n      dup3\n        /* \"#utility.yul\":1006:1020   */\n      add\n        /* \"#utility.yul\":991:1020   */\n      swap1\n      pop\n        /* \"#utility.yul\":857:1026   */\n      swap3\n      swap2\n      pop\n      pop\n      jump\t// out\n        /* \"#utility.yul\":1032:1266   */\n    tag_25:\n        /* \"#utility.yul\":1172:1206   */\n      0x536f6c6f2070726f706965746172696f20707565646520686163657220726573\n        /* \"#utility.yul\":1168:1169   */\n      0x00\n        /* \"#utility.yul\":1160:1166   */\n      dup3\n        /* \"#utility.yul\":1156:1170   */\n      add\n        /* \"#utility.yul\":1149:1207   */\n      mstore\n        /* \"#utility.yul\":1241:1258   */\n      0x6574206465206c61206375656e74610000000000000000000000000000000000\n        /* \"#utility.yul\":1236:1238   */\n      0x20\n        /* \"#utility.yul\":1228:1234   */\n      dup3\n        /* \"#utility.yul\":1224:1239   */\n      add\n        /* \"#utility.yul\":1217:1259   */\n      mstore\n        /* \"#utility.yul\":1032:1266   */\n      pop\n      jump\t// out\n        /* \"#utility.yul\":1272:1638   */\n    tag_26:\n        /* \"#utility.yul\":1414:1417   */\n      0x00\n        /* \"#utility.yul\":1435:1502   */\n      tag_41\n        /* \"#utility.yul\":1499:1501   */\n      0x2f\n        /* \"#utility.yul\":1494:1497   */\n      dup4\n        /* \"#utility.yul\":1435:1502   */\n      tag_24\n      jump\t// in\n    tag_41:\n        /* \"#utility.yul\":1428:1502   */\n      swap2\n      pop\n        /* \"#utility.yul\":1511:1604   */\n      tag_42\n        /* \"#utility.yul\":1600:1603   */\n      dup3\n        /* \"#utility.yul\":1511:1604   */\n      tag_25\n      jump\t// in\n    tag_42:\n        /* \"#utility.yul\":1629:1631   */\n      0x40\n        /* \"#utility.yul\":1624:1627   */\n      dup3\n        /* \"#utility.yul\":1620:1632   */\n      add\n        /* \"#utility.yul\":1613:1632   */\n      swap1\n      pop\n        /* \"#utility.yul\":1272:1638   */\n      swap2\n      swap1\n      pop\n      jump\t// out\n        /* \"#utility.yul\":1644:2063   */\n    tag_20:\n        /* \"#utility.yul\":1810:1814   */\n      0x00\n        /* \"#utility.yul\":1848:1850   */\n      0x20\n        /* \"#utility.yul\":1837:1846   */\n      dup3\n        /* \"#utility.yul\":1833:1851   */\n      add\n        /* \"#utility.yul\":1825:1851   */\n      swap1\n      pop\n        /* \"#utility.yul\":1897:1906   */\n      dup2\n        /* \"#utility.yul\":1891:1895   */\n      dup2\n        /* \"#utility.yul\":1887:1907   */\n      sub\n        /* \"#utility.yul\":1883:1884   */\n      0x00\n        /* \"#utility.yul\":1872:1881   */\n      dup4\n        /* \"#utility.yul\":1868:1885   */\n      add\n        /* \"#utility.yul\":1861:1908   */\n      mstore\n        /* \"#utility.yul\":1925:2056   */\n      tag_44\n        /* \"#utility.yul\":2051:2055   */\n      dup2\n        /* \"#utility.yul\":1925:2056   */\n      tag_26\n      jump\t// in\n    tag_44:\n        /* \"#utility.yul\":1917:2056   */\n      swap1\n      pop\n        /* \"#utility.yul\":1644:2063   */\n      swap2\n      swap1\n      pop\n      jump\t// out\n\n    auxdata: 0xa2646970667358221220efd1608cc2512c94e225628c4399e69a81709d2b61cea2e8d1603e05601d881b64736f6c634300081a0033\n}\n",
				"bytecode": {
					"linkReferences": {},
					"object": "60806040525f80553480156011575f80fd5b503360015f6101000a81548173ffffffffffffffffffffffffffffffffffffffff021916908373ffffffffffffffffffffffffffffffffffffffff1602179055506102a28061005f5f395ff3fe608060405234801561000f575f80fd5b506004361061003f575f3560e01c806391cefdd114610043578063d09de08a14610061578063fd8952921461006b575b5f80fd5b61004b610075565b6040516100589190610141565b60405180910390f35b61006961007a565b005b610073610092565b005b5f5481565b5f8081548092919061008b90610187565b9190505550565b60015f9054906101000a900473ffffffffffffffffffffffffffffffffffffffff1673ffffffffffffffffffffffffffffffffffffffff163373ffffffffffffffffffffffffffffffffffffffff1614610121576040517f08c379a00000000000000000000000000000000000000000000000000000000081526004016101189061024e565b60405180910390fd5b5f8081905550565b5f819050919050565b61013b81610129565b82525050565b5f6020820190506101545f830184610132565b92915050565b7f4e487b71000000000000000000000000000000000000000000000000000000005f52601160045260245ffd5b5f61019182610129565b91507f7fffffffffffffffffffffffffffffffffffffffffffffffffffffffffffffff82036101c3576101c261015a565b5b600182019050919050565b5f82825260208201905092915050565b7f536f6c6f2070726f706965746172696f207075656465206861636572207265735f8201527f6574206465206c61206375656e74610000000000000000000000000000000000602082015250565b5f610238602f836101ce565b9150610243826101de565b604082019050919050565b5f6020820190508181035f8301526102658161022c565b905091905056fea2646970667358221220efd1608cc2512c94e225628c4399e69a81709d2b61cea2e8d1603e05601d881b64736f6c634300081a0033",
					"opcodes": "PUSH1 0x80 PUSH1 0x40 MSTORE PUSH0 DUP1 SSTORE CALLVALUE DUP1 ISZERO PUSH1 0x11 JUMPI PUSH0 DUP1 REVERT JUMPDEST POP CALLER PUSH1 0x1 PUSH0 PUSH2 0x100 EXP DUP2 SLOAD DUP2 PUSH20 0xFFFFFFFFFFFFFFFFFFFFFFFFFFFFFFFFFFFFFFFF MUL NOT AND SWAP1 DUP4 PUSH20 0xFFFFFFFFFFFFFFFFFFFFFFFFFFFFFFFFFFFFFFFF AND MUL OR SWAP1 SSTORE POP PUSH2 0x2A2 DUP1 PUSH2 0x5F PUSH0 CODECOPY PUSH0 RETURN INVALID PUSH1 0x80 PUSH1 0x40 MSTORE CALLVALUE DUP1 ISZERO PUSH2 0xF JUMPI PUSH0 DUP1 REVERT JUMPDEST POP PUSH1 0x4 CALLDATASIZE LT PUSH2 0x3F JUMPI PUSH0 CALLDATALOAD PUSH1 0xE0 SHR DUP1 PUSH4 0x91CEFDD1 EQ PUSH2 0x43 JUMPI DUP1 PUSH4 0xD09DE08A EQ PUSH2 0x61 JUMPI DUP1 PUSH4 0xFD895292 EQ PUSH2 0x6B JUMPI JUMPDEST PUSH0 DUP1 REVERT JUMPDEST PUSH2 0x4B PUSH2 0x75 JUMP JUMPDEST PUSH1 0x40 MLOAD PUSH2 0x58 SWAP2 SWAP1 PUSH2 0x141 JUMP JUMPDEST PUSH1 0x40 MLOAD DUP1 SWAP2 SUB SWAP1 RETURN JUMPDEST PUSH2 0x69 PUSH2 0x7A JUMP JUMPDEST STOP JUMPDEST PUSH2 0x73 PUSH2 0x92 JUMP JUMPDEST STOP JUMPDEST PUSH0 SLOAD DUP2 JUMP JUMPDEST PUSH0 DUP1 DUP2 SLOAD DUP1 SWAP3 SWAP2 SWAP1 PUSH2 0x8B SWAP1 PUSH2 0x187 JUMP JUMPDEST SWAP2 SWAP1 POP SSTORE POP JUMP JUMPDEST PUSH1 0x1 PUSH0 SWAP1 SLOAD SWAP1 PUSH2 0x100 EXP SWAP1 DIV PUSH20 0xFFFFFFFFFFFFFFFFFFFFFFFFFFFFFFFFFFFFFFFF AND PUSH20 0xFFFFFFFFFFFFFFFFFFFFFFFFFFFFFFFFFFFFFFFF AND CALLER PUSH20 0xFFFFFFFFFFFFFFFFFFFFFFFFFFFFFFFFFFFFFFFF AND EQ PUSH2 0x121 JUMPI PUSH1 0x40 MLOAD PUSH32 0x8C379A000000000000000000000000000000000000000000000000000000000 DUP2 MSTORE PUSH1 0x4 ADD PUSH2 0x118 SWAP1 PUSH2 0x24E JUMP JUMPDEST PUSH1 0x40 MLOAD DUP1 SWAP2 SUB SWAP1 REVERT JUMPDEST PUSH0 DUP1 DUP2 SWAP1 SSTORE POP JUMP JUMPDEST PUSH0 DUP2 SWAP1 POP SWAP2 SWAP1 POP JUMP JUMPDEST PUSH2 0x13B DUP2 PUSH2 0x129 JUMP JUMPDEST DUP3 MSTORE POP POP JUMP JUMPDEST PUSH0 PUSH1 0x20 DUP3 ADD SWAP1 POP PUSH2 0x154 PUSH0 DUP4 ADD DUP5 PUSH2 0x132 JUMP JUMPDEST SWAP3 SWAP2 POP POP JUMP JUMPDEST PUSH32 0x4E487B7100000000000000000000000000000000000000000000000000000000 PUSH0 MSTORE PUSH1 0x11 PUSH1 0x4 MSTORE PUSH1 0x24 PUSH0 REVERT JUMPDEST PUSH0 PUSH2 0x191 DUP3 PUSH2 0x129 JUMP JUMPDEST SWAP2 POP PUSH32 0x7FFFFFFFFFFFFFFFFFFFFFFFFFFFFFFFFFFFFFFFFFFFFFFFFFFFFFFFFFFFFFFF DUP3 SUB PUSH2 0x1C3 JUMPI PUSH2 0x1C2 PUSH2 0x15A JUMP JUMPDEST JUMPDEST PUSH1 0x1 DUP3 ADD SWAP1 POP SWAP2 SWAP1 POP JUMP JUMPDEST PUSH0 DUP3 DUP3 MSTORE PUSH1 0x20 DUP3 ADD SWAP1 POP SWAP3 SWAP2 POP POP JUMP JUMPDEST PUSH32 0x536F6C6F2070726F706965746172696F20707565646520686163657220726573 PUSH0 DUP3 ADD MSTORE PUSH32 0x6574206465206C61206375656E74610000000000000000000000000000000000 PUSH1 0x20 DUP3 ADD MSTORE POP JUMP JUMPDEST PUSH0 PUSH2 0x238 PUSH1 0x2F DUP4 PUSH2 0x1CE JUMP JUMPDEST SWAP2 POP PUSH2 0x243 DUP3 PUSH2 0x1DE JUMP JUMPDEST PUSH1 0x40 DUP3 ADD SWAP1 POP SWAP2 SWAP1 POP JUMP JUMPDEST PUSH0 PUSH1 0x20 DUP3 ADD SWAP1 POP DUP2 DUP2 SUB PUSH0 DUP4 ADD MSTORE PUSH2 0x265 DUP2 PUSH2 0x22C JUMP JUMPDEST SWAP1 POP SWAP2 SWAP1 POP JUMP INVALID LOG2 PUSH5 0x6970667358 0x22 SLT KECCAK256 0xEF 0xD1 PUSH1 0x8C 0xC2 MLOAD 0x2C SWAP5 0xE2 0x25 PUSH3 0x8C4399 0xE6 SWAP11 DUP2 PUSH17 0x9D2B61CEA2E8D1603E05601D881B64736F PUSH13 0x634300081A0033000000000000 "
				},
				"gasEstimates": {
					"creation": {
						"codeDepositCost": "134800",
						"executionCost": "29451",
						"totalCost": "164251"
					},
					"external": {
						"cuenta()": "2402",
						"increment()": "24497",
						"resetCount()": "7347"
					}
				},
				"methodIdentifiers": {
					"cuenta()": "91cefdd1",
					"increment()": "d09de08a",
					"resetCount()": "fd895292"
				}
			},
			"storageLayout": {
				"storage": [
					{
						"astId": 4,
						"contract": "contracts/PublicCounter.sol:PublicCounter",
						"label": "cuenta",
						"offset": 0,
						"slot": "0",
						"type": "t_int256"
					},
					{
						"astId": 6,
						"contract": "contracts/PublicCounter.sol:PublicCounter",
						"label": "propietario",
						"offset": 0,
						"slot": "1",
						"type": "t_address"
					}
				],
				"types": {
					"t_address": {
						"encoding": "inplace",
						"label": "address",
						"numberOfBytes": "20"
					},
					"t_int256": {
						"encoding": "inplace",
						"label": "int256",
						"numberOfBytes": "32"
					}
				}
			},
			"userdoc": {
				"kind": "user",
				"methods": {},
				"version": 1
			}
		}
	}
}